:020000040800F2
:1000000000000220850C0008D50C0008D50C000863
:10001000D50C0008D50C0008D50C00080000000025
:10002000000000000000000000000000D50C0008E7
:10003000D50C000800000000D50C0008D50C000805
:10004000D50C0008D50C0008D50C0008D50C00080C
:10005000D50C0008D50C0008D50C0008D50C0008FC
:10006000D50C0008D50C0008D50C0008D50C0008EC
:10007000D50C0008D50C0008D50C0008D50C0008DC
:10008000D50C0008D50C0008D50C0008D50C0008CC
:10009000D50C0008D50C0008D50C0008D50C0008BC
:1000A000D50C0008D50C0008D50C0008D50C0008AC
:1000B000D50C0008D50C0008D50C0008D50C00089C
:1000C000D50C0008D50C0008D50C0008D50C00088C
:1000D000D50C00085D3E0008E13E0008653F0008C1
:1000E000D50C0008D50C0008D50C0008D50C00086C
:1000F000D50C0008D50C0008D50C0008D50C00085C
:10010000D50C0008D50C0008D50C0008D50C00084B
:10011000E93F00086D400008D50C0008D50C000828
:10012000D50C0008D50C0008D50C0008D50C00082B
:10013000D50C0008D50C0008D50C0008D50C00081B
:10014000D50C0008D50C0008D50C0008D50C00080B
:10015000D50C0008D50C0008D50C0008F1400008AB
:10016000D50C0008D50C0008D50C0008D50C0008EB
:10017000D50C0008D50C0008D50C000800000000C4
:08018000D50C0008D50C0008A5
:1001880070B54FF0FF0C4CF4E06C1CEA11541DBF25
:100198001CEA135594EA0C0F95EA0C0F00F0DEF8F0
:1001A8002C4481EA030621EA4C5123EA4C5350EAD5
:1001B800013518BF52EA033541F4801143F4801326
:1001C80038D0A0FB02CE4FF00005E1FB02E506F0B7
:1001D8000042E0FB03E54FF00006E1FB03569CF00C
:1001E800000F18BF4EF0010EA4F1FF04B6F5007F12
:1001F80064F5407404D25FEA4E0E6D4146EB060684
:1002080042EAC62141EA55514FEAC52040EA5E500C
:100218004FEACE2EB4F1FD0C88BFBCF5E06F1ED8B6
:10022800BEF1004F08BF5FEA500E50F1000041EBED
:10023800045170BD06F0004646EA010140EA02009A
:1002480081EA0301B4EB5C04C2BFD4EB0C0541EABC
:10025800045170BD41F480114FF0000E013C00F3D1
:10026800AB8014F1360FDEBF002001F0004170BDF5
:10027800C4F10004203C35DA0C341BDC04F114040E
:10028800C4F1200500FA05F320FA04F001FA05F29A
:1002980040EA020001F0004221F0004110EBD37067
:1002A80021FA04F642EB06015EEA430E08BF20EA93
:1002B800D37070BDC4F10C04C4F1200500FA04F336
:1002C80020FA05F001FA04F240EA020001F00041C8
:1002D80010EBD37041F100015EEA430E08BF20EA3B
:1002E800D37070BDC4F1200500FA05F24EEA020E83
:1002F80020FA04F301FA05F243EA020321FA04F0B2
:1003080001F0004121FA04F220EA020000EBD37068
:100318005EEA430E08BF20EAD37070BD94F0000F68
:100328000FD101F00046400041EB010111F4801F9C
:1003380008BF013CF7D041EA060195F0000F18BF4D
:10034800704703F00046520043EB030313F4801F89
:1003580008BF013DF7D043EA0603704794EA0C0F43
:100368000CEA135518BF95EA0C0F0CD050EA410659
:1003780018BF52EA4306D1D181EA030101F00041D6
:100388004FF0000070BD50EA410606BF10461946FE
:1003980052EA430619D094EA0C0F02D150EA01360A
:1003A80013D195EA0C0F05D152EA03361CBF10464B
:1003B80019460AD181EA030101F0004141F0FE41EA
:1003C80041F470014FF0000070BD41F0FE4141F46E
:1003D800780170BD81F0004102E000BF83F0004366
:1003E80030B54FEA41044FEA430594EA050F08BFC8
:1003F80090EA020F1FBF54EA000C55EA020C7FEA8C
:10040800645C7FEA655C00F0E2804FEA5454D4EB08
:100418005555B8BF6D420CDD2C4480EA020281EAD2
:10042800030382EA000083EA010180EA020281EA0A
:100438000303362D88BF30BD11F0004F4FEA01315C
:100448004FF4801C4CEA113102D0404261EB41016B
:1004580013F0004F4FEA03334CEA133302D05242F1
:1004680063EB430394EA050F00F0A780A4F10104AD
:10047800D5F1200E0DDB02FA0EFC22FA05F28018E7
:1004880041F1000103FA0EF2801843FA05F35941CD
:100498000EE0A5F120050EF1200E012A03FA0EFC4C
:1004A80028BF4CF0020C43FA05F3C01851EBE37176
:1004B80001F0004507D54FF0000EDCF1000C7EEB93
:1004C80000006EEB0101B1F5801F1BD3B1F5001FD1
:1004D8000CD349085FEA30004FEA3C0C04F10104F0
:1004E8004FEA445212F5800F80F09A80BCF1004F19
:1004F80008BF5FEA500C50F1000041EB045141EA9B
:10050800050130BD5FEA4C0C404141EB0101013C63
:1005180028BFB1F5801FE9D291F0000F04BF014652
:100528000020B1FA81F308BF2033A3F10B03B3F124
:1005380020020CDA0C3208DD02F1140CC2F10C02B4
:1005480001FA0CF021FA02F10CE002F11402D8BF12
:10055800C2F1200C01FA02F120FA0CFCDCBF41EADE
:100568000C019040E41AA2BF01EB0451294330BDAD
:100578006FEA04041F3C1CDA0C340EDC04F114048A
:10058800C4F1200220FA04F001FA02F340EA030061
:1005980021FA04F345EA030130BDC4F10C04C4F1A7
:1005A800200220FA02F001FA04F340EA0300294687
:1005B80030BD21FA04F0294630BD94F0000F83F4D1
:1005C800801306BF81F480110134013D4EE77FEAB4
:1005D800645C18BF7FEA655C29D094EA050F08BF00
:1005E80090EA020F05D054EA000C04BF19461046E1
:1005F80030BD91EA030F1EBF0021002030BD5FEA25
:10060800545C05D14000494128BF41F0004130BD4C
:1006180014F580043CBF01F5801130BD01F00045A0
:1006280045F0FE4141F470014FF0000030BD7FEA13
:10063800645C1ABF194610467FEA655C1CBF0B460E
:10064800024650EA013406BF52EA033591EA030F25
:1006580041F4002130BD00BF90F0000F04BF00211D
:10066800704730B54FF4806404F132044FF0000550
:100678004FF0000150E700BF90F0000F04BF0021C9
:10068800704730B54FF4806404F1320410F000452F
:1006980048BF40424FF000013EE700BF42004FEA2A
:1006A800E2014FEA31014FEA02701FBF12F07F43A7
:1006B80093F07F4F81F06051704732F07F4208BF5E
:1006C800704793F07F4F04BF41F40021704730B565
:1006D8004FF4607401F0004521F000411CE700BFB1
:1006E80050EA010208BF704730B54FF000050AE034
:1006F80050EA010208BF704730B511F0004502D535
:10070800404261EB41014FF4806404F132045FEA36
:10071800915C3FF4D8AE4FF003025FEADC0C18BFDF
:1007280003325FEADC0C18BF033202EBDC02C2F1D1
:10073800200300FA03FC20FA02F001FA03FE40EA63
:100748000E0021FA02F11444BDE600BF4FF0FF3C51
:1007580006E000BF4FF0010C02E000BF4FF0010CB3
:100768004DF804CD4FEA410C7FEA6C5C4FEA430C2C
:1007780018BF7FEA6C5C1BD001B050EA410C0CBF7B
:1007880052EA430C91EA030F02BF90EA020F0020DD
:10079800704710F1000F91EA030F58BF994208BF44
:1007A80090422CBFD8176FEAE37040F00100704701
:1007B8004FEA410C7FEA6C5C02D150EA013C07D158
:1007C8004FEA430C7FEA6C5CD6D152EA033CD3D0A3
:1007D8005DF8040B704700BF8446104662468C469D
:1007E8001946634600E000BF01B5FFF7B7FF0028D0
:1007F80048BF10F1000F01BD4DF808EDFFF7F4FFF9
:100808000CBF012000205DF808FB00BF4DF808ED83
:10081800FFF7EAFF34BF012000205DF808FB00BFA6
:100828004DF808EDFFF7E0FF94BF012000205DF8C8
:1008380008FB00BF4DF808EDFFF7CEFF94BF01207D
:1008480000205DF808FB00BF4DF808EDFFF7C4FF76
:1008580034BF012000205DF808FB00BF4A0011D218
:1008680012F5001211D20DD56FF47873B3EB625202
:100878000ED44FEAC12343F0004343EA505323FA0E
:1008880002F070474FF00000704750EA013002D183
:100898004FF0FF3070474FF0000070474FEA4102B9
:1008A800B2F1E04324BFB3F5001CDCF1FE5C0DD9C6
:1008B80001F0004C4FEAC0024CEA5070B2F1004F10
:1008C80040EB830008BF20F00100704711F0804F13
:1008D80021D113F13872BCBF01F00040704741F4D8
:1008E80080114FEA5252C2F11802C2F1200C10FADC
:1008F8000CF320FA02F018BF40F001004FEAC123C0
:100908004FEAD32303FA0CFC40EA0C0023FA02F363
:100918004FEA4303CCE77FEA625307D150EA013339
:100928001EBF4FF0FE4040F44000704701F0004009
:1009380040F0FE4040F40000704700BF844641EAA2
:10094800000313F003036DD1403A41D351F8043B3F
:1009580040F8043B51F8043B40F8043B51F8043B91
:1009680040F8043B51F8043B40F8043B51F8043B81
:1009780040F8043B51F8043B40F8043B51F8043B71
:1009880040F8043B51F8043B40F8043B51F8043B61
:1009980040F8043B51F8043B40F8043B51F8043B51
:1009A80040F8043B51F8043B40F8043B51F8043B41
:1009B80040F8043B51F8043B40F8043B51F8043B31
:1009C80040F8043B51F8043B40F8043B403ABDD2A0
:1009D800303211D351F8043B40F8043B51F8043B42
:1009E80040F8043B51F8043B40F8043B51F8043B01
:1009F80040F8043B103AEDD20C3205D351F8043BD1
:100A080040F8043B043AF9D2043208D0D2071CBF9C
:100A180011F8013B00F8013B01D30B8803806046C5
:100A2800704700BF082A13D38B078DD010F003033B
:100A38008AD0C3F10403D21ADB071CBF11F8013BAB
:100A480000F8013B80D331F8023B20F8023B7BE7FA
:100A5800043AD9D3013A11F8013B00F8013BF9D225
:100A68000B7803704B7843708B78837060467047BF
:100A780010B5054C237833B9044B13B10448AFF3D0
:100A880000800123237010BD9802002000000000A0
:100A98007079000808B5034B1BB103490348AFF34D
:100AA800008008BD000000009C020020707900084A
:100AB80080B58CB000AF27233B8426237B844FF47A
:100AC800E1337B62012387F82830002387F8293037
:100AD80007F120031946214800F02EFA20491F4843
:100AE80000F0CAFA3B46184601F00CFF18233B8079
:100AF80019237B800623BB801523FB8005233B81BC
:100B080004237B814B23BB813323FB813B4619465E
:100B1800144801F033FFF862FB6AB3F1FF3F03D0DA
:100B2800FB6AB3F1FF3F04D10F490C4800F0C0FA4B
:100B3800FEE70C4801F0DDFF0346B3F1FF3F04D1A7
:100B48000A49064800F0B4FAFEE70949034800F0EC
:100B580093FA00BF3037BD4680BD00BFF0020020C9
:100B680090790008B4020020A4790008BC79000834
:100B7800D479000880B582B000AF4FF000037B60E5
:100B88003349344800F062FA0121334802F0D8F8BA
:100B98003B1D1946304802F013F90346002B09D1D2
:100BA8007B681846FFF77AFD02460B462B49294811
:100BB80000F04CFA4FF47A7000F068F94FF47A704C
:100BC80000F064F92649234800F040FA0021224841
:100BD80002F0B6F84FF47A7000F058F94FF47A70D2
:100BE80000F054F91F491B4800F030FA02211A4856
:100BF80002F0A6F83B1D1946174802F0E1F8034633
:100C0800002B09D17B681846FFF748FD02460B46C2
:100C18001249104800F01AFA4FF47A7000F036F9C9
:100C28004FF47A7000F032F90D490A4800F00EFAD4
:100C38000021094802F084F84FF47A7000F026F990
:100C48004FF47A7000F022F900BF0837BD4680BD26
:100C5800E8790008F0020020B4020020007A0008B9
:100C6800147A00082C7A000880B500AF00F034F937
:100C7800FFF71EFFFFF77EFFFCE70000DFF834D028
:100C88000D480E490E4A002302E0D458C4500433DC
:100C9800C4188C42F9D30B4A0B4C002301E01360B3
:100CA8000432A242FBD300F0ABF806F0D3FDFFF705
:100CB800DBFF70470000022000000020980200209F
:100CC8003C8000089802002054080020FEE780B409
:100CD80000AF4EF68850CEF20000016841F4700172
:100CE800016000BF00BF00BF00BFF1EE100A4FF067
:100CF8000001C0F2C00140EA0100E1EE100A00BFA5
:100D0800BD465DF8047B704780B485B000AF78605D
:100D18000023FB600023BB607B68204A5A60204B9D
:100D28009B6803F0F003FB60FB681B09FB601D4A2E
:100D3800FB6813441B78BB607B685A68BB689A40A1
:100D48007B681A60164B9B6803F4E053FB60FB68F2
:100D58009B0AFB60134AFB6813441B78BB607B68E3
:100D68005A68BB68DA407B689A600D4B9B6803F44D
:100D78006043FB60FB685B0BFB600A4AFB6813443B
:100D88001B78BB607B685A68BB68DA407B68DA60AE
:100D980000BF1437BD465DF8047B7047007A030A2C
:100DA800003802400000002080B400AF124B1B68DE
:100DB800114A43F0010313600F4B00229A600E4B57
:100DC8001B680D4A23F0847323F4803313600A4BA5
:100DD8005A680949094B13404B60074B1B68064A80
:100DE80023F480231360044B0022DA6000BFBD4661
:100DF8005DF8047B704700BF0038024010300024C3
:100E080080B500AF1D4B1B681C4A43F005031360F7
:100E18001A4B1B68194A43F480731360174B1B68FD
:100E2800164A43F400731360FFF7BEFF144B154ACC
:100E38005A60134B144A9A60114B81221A6000BF02
:100E48000F4B1B6803F00203002BF9D00C4B1B68F7
:100E58000B4A43F08073136000BF094B1B6803F013
:100E68000073002BF9D000BF054B9B6803F00C03FF
:100E7800082BF9D1FFF72BFF00BF80BD003C0240D3
:100E880000380240105400090294600080B582B016
:100E980000AF78607B6845F2082202FB03F318462E
:100EA80006F06EFD00BF0837BD4680BD80B500AFB7
:100EB8000120FFF7EBFF00BF80BD80B500AF052024
:100EC800FFF7E4FF00BF80BD80B500AF0A20FFF741
:100ED800DDFF00BF80BD000080B400AF074B1B786A
:100EE80083F00103DBB2002B02D0044B01221A70FD
:100EF80000BFBD465DF8047B704700BF4803002073
:100F080080B584B000AFF860B9607A603B60FB6878
:100F1800B968184602F074FA3A687968F86800F017
:100F2800A3FAFB680349184602F06AFA00BF1037B3
:100F3800BD4680BD447A000880B594B000AF7860A3
:100F48003960002387F84F3007F10803184602F08C
:100F580047F87B683B4A9A647B683B4ADA643B689B
:100F68001B887B813B685B883B813B681B7A87F8E1
:100F780044304FF48073FB634FF480733B647B68A9
:100F880007F108021146184602F066F8034687F88A
:100F98004F3097F94F30002B06D097F94F30012B7F
:100FA80002D04FF0FF3349E07A683B685B68194626
:100FB800104602F067F8034687F84F3097F94F302C
:100FC800002B02D04FF0FF3338E07B680021184631
:100FD80002F09BF8034687F84F3097F94F30002B03
:100FE80002D04FF0FF3329E07B680121184602F058
:100FF800D0F8034687F84F3097F94F30002B02D0CE
:101008004FF0FF331AE07B680121184602F005F91A
:10101800034687F84F3097F94F30002B02D04FF036
:10102800FF330BE07B680121184602F03AF93B6870
:101038005A7A7B6883F8542097F94F30184650370E
:10104800BD4680BD4C0300204C0400200EB480B582
:1010580085B000AF786007F12003BB60BA68F96912
:10106800786800F001FAF86000BF1437BD46BDE8A3
:10107800804003B0704700000EB480B585B000AF63
:10108800786007F12003FB607B6893F85430012BEC
:1010980005D8FB68FA6905497868FFF731FF00BF92
:1010A8001437BD46BDE8804003B07047487A000851
:1010B8000EB480B585B000AF786007F12003FB60FF
:1010C8007B6893F85430032B05D8FB68FA69054907
:1010D8007868FFF715FF00BF1437BD46BDE88040AC
:1010E80003B07047547A0008B0B582B000AF034629
:1010F800FB71FB796D2B57D9FB79524AA2FB03236D
:101108005B09DBB21233504A9B0013441B68184634
:10111800FFF7C4FA4FF000024C4BFFF731F80246D4
:101128000B4614461D46FB79464AA2FB0312520998
:10113800642101FB02F29B1ADBB2454AA2FB03239E
:10114800DB08DBB20933404A9B0013441B6818468E
:10115800FFF7A4FA02460B4620462946FFF710F887
:1011680002460B4614461D46FA79394BA3FB021377
:10117800D9080B469B000B445B00D31ADBB2324AFA
:101188009B0013441B681846FFF788FA02460B4673
:1011980020462946FEF7F4FF02460B46104619463C
:1011A800FFF77CFB034645E0FB790A2B36D9FB7930
:1011B800274AA2FB0323DB08DBB20933224A9B0040
:1011C80013441B681846FFF769FA4FF000021F4BDB
:1011D800FEF7D6FF02460B4614461D46FA791C4B0D
:1011E800A3FB0213D9080B469B000B445B00D31AE0
:1011F800DBB2154A9B0013441B681846FFF74EFAEA
:1012080002460B4620462946FEF7BAFF02460B4621
:1012180010461946FFF742FB03460BE0FB790A4AE2
:101228009B001344D3ED007AB6EE007A67EE877A16
:1012380017EE903A07EE903AB0EE670A0837BD46C7
:10124800B0BD00BF1F85EB51C07A00080000E03F29
:10125800CDCCCCCC80B483B000AF0346FB7197F9FA
:101268000730002B79DAFB795B42DBB2FB7197F927
:1012780007306D2B40DD97F90730764A82FB031261
:101288005211DB17D31A5BB21233734A9B00134413
:1012980093ED007A97F907306E4A82FB03125111D9
:1012A800DA178A1A642101FB02F29B1A5BB26B4AB5
:1012B80082FB03129210DB17D31A5BB20933664A1A
:1012C8009B001344D3ED007A27EE277A97F907207D
:1012D800624B83FB02139910D317C91A0B469B0064
:1012E8000B445B00D31A5BB25B4A9B001344D3EDFB
:1012F800007A67EE277AA5E097F907300A2B24DDF4
:1013080097F90730554A82FB03129210DB17D31A5C
:101318005BB20933504A9B00134493ED007A97F966
:1013280007204E4B83FB02139910D317C91A0B469B
:101338009B000B445B00D31A5BB2474A9B001344E3
:10134800D3ED007A67EE277A7CE097F90730424AB6
:101358009B001344D3ED007A74E097F907306D2BA6
:1013680040DD97F907303B4A82FB03125211DB1725
:10137800D31A5BB212333A4A9B00134493ED007AB6
:1013880097F90730334A82FB03125111DA178A1A88
:10139800642101FB02F29B1A5BB2304A82FB031202
:1013A8009210DB17D31A5BB209332D4A9B00134402
:1013B800D3ED007A27EE277A97F90720274B83FB8E
:1013C80002139910D317C91A0B469B000B445B00F4
:1013D800D31A5BB2224A9B001344D3ED007A67EE1E
:1013E800277A2FE097F907300A2B24DD97F9073081
:1013F8001A4A82FB03129210DB17D31A5BB2093325
:10140800174A9B00134493ED007A97F90720134B72
:1014180083FB02139910D317C91A0B469B000B4480
:101428005B00D31A5BB20E4A9B001344D3ED007ADB
:1014380067EE277A06E097F90730094A9B001344BC
:10144800D3ED007AB0EE670A0C37BD465DF8047B31
:10145800704700BF1F85EB51C07A00086766666653
:101468008C7A00080000000080B52DED028B9AB040
:1014780000AFF860B9607A600023BB650023FB65A4
:1014880001F022BA97F85730252B0CD097F857302F
:1014980087F84330FB6807F143010122184601F041
:1014A8001CFF01F011BA00233B660023FB65BB68F3
:1014B8001B78203B102B4ED801A252F823F000BF16
:1014C8001D1500085F1500085F1500083D15000888
:1014D8005F1500085F1500085F1500085F15000814
:1014E8005F1500085F1500085F1500082D15000836
:1014F8005F1500080D1500085F1500085F15000846
:101508004D150008FB6D43F00803FB65BB6801330C
:10151800BB601FE0FB6D43F00103FB65BB68013353
:10152800BB6017E0FB6D43F00203FB65BB6801334A
:10153800BB600FE0FB6D43F40063FB65BB680133E0
:10154800BB6007E0FB6D43F00403FB65BB68013338
:10155800BB6000BFABE700BFFB6D03F00203002BCD
:1015680003D0FB6D23F00103FB65FB6D03F008035B
:10157800002B03D0FB6D23F00403FB65BB681B78CD
:101588000133C64A13441B7803F00403002B19D017
:1015980000233B663A6E13469B0013445B001946D2
:1015A800BB685A1CBA601B780B44303B3B66BB686F
:1015B8001B780133B94A13441B7803F00403002B4A
:1015C800E8D140E0BB681B782A2B07D17B681A1D3D
:1015D8007A601B683B66BB680133BB60BB681B78DD
:1015E8002E2B2AD1BB680133BB60BB681B782A2B22
:1015F80008D17B681A1D7A601B687B66BB6801335B
:10160800BB6020E000237B660CE07A6E13469B00EB
:1016180013445B001946BB685A1CBA601B780B441C
:10162800303B7B66BB681B7801339C4A13441B78AC
:1016380003F00403002BE8D105E000237B66FB6D73
:1016480043F48053FB65BB685A1CBA601B7887F863
:10165800573097F85730782B00F2948101A252F84E
:1016680023F000BF511800088D1900088D190008D3
:101678008D1900088D1900088D1900088D190008AA
:101688008D1900088D1900088D1900088D1900089A
:101698008D1900088D1900088D1900088D1900088A
:1016A8008D1900088D1900088D1900088D1900087A
:1016B8008D1900088D1900088D1900088D1900086A
:1016C8008D1900088D1900088D1900088D1900085A
:1016D8008D1900088D1900088D1900088D1900084A
:1016E8008D1900088D1900088D1900088D1900083A
:1016F8008D1900088D1900088D1900088D1900082A
:101708008D1900088D1900088D1900088D19000819
:101718008D1900088D1900088D1900088D19000809
:101728008D1900088D1900088D1900088D190008F9
:101738008D1900088D1900088D1900088D190008E9
:101748008D1900088D1900088D1900088D190008D9
:101758008D1900088D1900088D1900088D190008C9
:101768008D1900088D1900088D1900088D190008B9
:101778008D1900088D1900086B1800088D190008CC
:101788008D1900088D1900088D1900088D19000899
:101798008D190008571800088D1900088D190008C0
:1017A8008D1900088D1900088D1900088D19000879
:1017B8008D1900088D1900088D1900088D19000869
:1017C8008D190008911800088D1900088D19000856
:1017D8008D1900088D1900088D1900088D19000849
:1017E8008D1900088D1900088D1900088D19000839
:1017F8007F190008A3190008731800086118000869
:101808007D1800088D190008A31900088D19000813
:101818008D190008571800088D1900088D1900083F
:1018280087180008911800088D1900088D190008FC
:10183800A91800088D190008991900088D190008C1
:101848008D19000899180008BB6D01F049B8FB6DA7
:1018580043F01003FB65F6E6FB6D43F48063FB651C
:101868009CE0FB6D43F02003FB65FB6D43F4807344
:10187800FB6593E0FB6D43F40073FB658EE0FB6D45
:1018880043F04003FB6589E0FB6D43F02003FB65F3
:10189800FB6D43F08003FB6580E000BF247F0008F8
:1018A8007B681A1D7A601B687B647B6C002B01D1F6
:1018B800914B7B640023BB6402E0BB6C0133BB64C7
:1018C8007A6CBB6C13441B78002BF6D100BF7B6E7F
:1018D800002B05D0BA6C7B6E9A4201D97B6EBB6433
:1018E800BA6C3B6E9A4204D23A6EBB6CD31A3B6612
:1018F80001E000233B66FB6D03F00803002B3AD19F
:1019080009E0202387F84230FB6807F142010122F1
:10191800184601F0E2FC3B6E5A1E3A66002BF0D1E5
:101928000CE07B6C5A1C7A641B7887F84130FB68A2
:1019380007F141010122184601F0CFFCBB6C5A1E89
:10194800BA64002BEDD1FB6D03F00803002B00F007
:10195800BB8709E0202387F84030FB6807F1400186
:101968000122184601F0B9FC3B6E5A1E3A66002B5C
:10197800F0D100F0A9BF7B681A1D7A601B68DBB242
:1019880087F8573007F157037B640123BB649EE750
:10199800FB6D43F0C003FB6500E000BFFB6D03F483
:1019A800E063002B00F05285FB6D03F48053002B9D
:1019B80001D006237B667B68073323F0070303F116
:1019C80008027A60D3E9002310461946FEF766FF3D
:1019D80003463B65D7ED147AF5EEC07AF1EE10FABE
:1019E80009D5D7ED147AF1EE677AC7ED147AFB6D55
:1019F80043F00303FB650023FB64D7ED147AF5EE8F
:101A0800407AF1EE10FA45D007F150031B68DB0D60
:101A1800DBB27E3BFB64FB6C013BFB64FA6C134658
:101A28005B001344FB64FB6C344A82FB0312921084
:101A3800DB17D31AFB64FB6C002B02DAFB6C013B4F
:101A4800FB64FB6CDBB25B42DBB25BB21846FFF7B0
:101A580001FCB0EE407AD7ED147A67EE277AC7ED2D
:101A6800117AD7ED117AB7EE007AF4EEC77AF1EE73
:101A780010FA03D5FB6C013BFB640BE0D7ED117A40
:101A8800B2EE047AF4EEC77AF1EE10FA02DBFB6CE0
:101A98000133FB64FB6C002B03DC012387F8573010
:101AA80003E0FB6CDBB287F85730FB6D03F48073FF
:101AB800002B0ED1FB6D03F40073002B00F06D8238
:101AC800FB6C13F1040F04DBFB6C7A6E9A4200F393
:101AD80064827B6E002B07D0FB6D03F40073002B30
:101AE80002D07B6E013B7B667B6E082B08D90823EE
:101AF80087F8573008E000BF847A00086766666692
:101B08007B6EDBB287F85730D7ED147AF5EE407A62
:101B1800F1EE10FA71D0FB6C5BB21846FFF79AFB36
:101B2800F0EE406A97ED147AC7EE267AC7ED147A7C
:101B380097F857305B42DBB25BB21846FFF78AFB77
:101B4800F0EE406A97ED147AC7EE267AC7ED147A5C
:101B580097ED147AD7ED147AFCEEE77AF8EE677A07
:101B680077EE677AB6EE007AF4EEC77AF1EE10FAFD
:101B780007DBD7ED147AB6EE007A77EE877AC7EDF1
:101B8800147AD7ED147AFCEEE77A17EE901A97F8E4
:101B980057300133A44A52F82330994214D33B6D8D
:101BA8001846FEF77BFD9EA3D3E90023FEF7E8FA6B
:101BB80002460B4610461946FEF770FE03463B6583
:101BC800FB6C0133FB6418E0D7ED147AFCEEE77A7E
:101BD80017EE901A97F857301A46934B53F822305D
:101BE80099420AD2D7ED147AB2EE047A67EE877A70
:101BF800C7ED147AFB6C013BFB64FB6D03F40073C7
:101C0800002B45D0FB6D03F40063002B40D17B6EA5
:101C18000A2B01DD0A237B66D7ED147AFCEEE77AFE
:101C280017EE903A7B6408E07B6E013B7B667B6C29
:101C38007E4AA2FB0323DB087B647B6C002B0BD062
:101C4800796C7A4BA3FB0123DA0813469B001344F3
:101C58005B00CA1A002AE7D097F857301A467B6EFD
:101C6800934215DA97F857207B6EDBB2D31ADBB2B2
:101C78005BB21846FFF7EEFAF0EE406A97ED147A79
:101C8800C7EE267AC7ED147A7B6EDBB287F8573039
:101C98007B6E05333A6ED31A3B667B6E002B04D1FC
:101CA800FB6D03F40063002B02D03B6E013B3B66E7
:101CB800FB6D03F00303002B02D03B6E013B3B6638
:101CC800FB6D03F00403002B37D0FB6D03F0020318
:101CD800002B11D0FB6D03F00103002B01D02D2345
:101CE80000E02B2387F83F30FB6807F13F01012212
:101CF800184601F0F2FA1CE0FB6D03F00103002B1B
:101D080017D0202387F83E30FB6807F13E010122F7
:101D1800184601F0E2FA0CE0302387F83D30FB6802
:101D280007F13D010122184601F0D7FA3B6E013B4D
:101D38003B663B6E002BEFDC3BE0FB6D03F00803DA
:101D4800002B10D10CE0202387F83C30FB6807F10A
:101D58003C010122184601F0C0FA3B6E013B3B668C
:101D68003B6E002BEFDCFB6D03F00203002B11D060
:101D7800FB6D03F00103002B01D02D2300E02B2382
:101D880087F83B30FB6807F13B010122184601F058
:101D9800A4FA0EE0FB6D03F00103002B09D0202309
:101DA80087F83A30FB6807F13A010122184601F03A
:101DB80094FAD7ED147AFCEEE77A17EE903A7B6442
:101DC8007A6C97F857301946174B53F82130B2FB05
:101DD800F3F3DBB23033DBB287F83930FB6807F155
:101DE80039010122184601F078FA7B6E002B04D1E4
:101DF800FB6D03F40063002B53D02E2387F8383093
:101E0800FB6807F138010122184601F066FA97F8D5
:101E180057301A467B6E9B1A7B662DE0AFF3008025
:101E28009A9999999999B93F1C7B0008CDCCCCCC4B
:101E38007A6C97F85730013BDBB287F8573097F840
:101E480057301946B84B53F82130B2FBF3F1B74B72
:101E5800A3FB0123DA0813469B0013445B00CA1A4C
:101E6800D3B23033DBB287F83730FB6807F137017C
:101E78000122184601F031FA97F85730002BD7D1D4
:101E88000CE0302387F83630FB6807F13601012271
:101E9800184601F022FA7B6E013B7B667B6E002BB5
:101EA800EFD1FB6D03F02003002B0AD0452387F800
:101EB8003530FB6807F135010122184601F00DFAAB
:101EC80009E0652387F83430FB6807F13401012203
:101ED800184601F002FAFB6C002B0DDAFB6C5B4232
:101EE800FB642D2387F83330FB6807F133010122A7
:101EF800184601F0F2F909E02B2387F83230FB6825
:101F080007F132010122184601F0E7F9FB6C884A13
:101F180082FB03129210DB17D31ADBB23033DBB229
:101F280087F83130FB6807F131010122184601F0CA
:101F3800D4F9FA6C7E4B83FB02139910D317C91A94
:101F48000B469B000B445B00D11ACBB23033DBB29B
:101F580087F83030FB6807F130010122184601F09C
:101F6800BCF9FB6D03F00803002B00F0AD843B6E59
:101F7800002B40F3A984202387F82F30FB6807F152
:101F88002F010122184601F0A8F93B6E013B3B6680
:101F98003B6E002BEFD100F097BCFB6D03F4007390
:101FA800002B69D0FB6C002B04DAFB6C013B7A6ECA
:101FB800D31A7B66D7ED147AFCEEE77A17EE903ADF
:101FC8007B64012387F857300EE07A6C97F8573016
:101FD8001946554B53F821309A420AD397F857308F
:101FE8000133DBB287F8573097F857300A2BECD11A
:101FF80000E000BF97F857301A467B6E9B1A7B6645
:1020080097ED147A7B6C07EE903AF8EE677A37EE24
:10201800678A7B6E5BB21846FFF71CF9F0EE407AD0
:1020280068EE277A17EE900AFEF738FB4FF00002A9
:10203800404BFEF7D5F902460B4610461946FEF707
:102048000DFC03467B6408E07B6C384AA2FB032343
:10205800DB087B647B6E013B7B667B6E002B0BD0C1
:10206800796C324BA3FB0123DA0813469B00134417
:102078005B00CA1A002AE7D07B6E0C2B0CDC7B6E47
:10208800DBB21846FFF730F8B0EE407AD7ED147A95
:1020980077EE277AC7ED147AD7ED147AF5EE407A01
:1020A800F1EE10FA48D0D7ED147AFCEEE77A17EE85
:1020B800903A002B40D1FB6C012B3DDD97ED148A43
:1020C800FB6C5BB21846FFF7C5F8F0EE407A88EE75
:1020D800277A17EE100AFEF7E1FA11A3D3E90023D5
:1020E800FEF794FB0346002B03D0FB6C093BFB6413
:1020F80002E0FB6C083BFB6497ED148AFB6C5BB257
:102108001846FFF7A7F8B0EE407AC8EE077AFCEE5B
:10211800E77A17EE903A7B644FF000033B651FE0C7
:1021280095D626E80B2E11401C7B0008CDCCCCCCD4
:10213800676666660000E03FD7ED147AFCEEE77A42
:1021480017EE903A7B6497ED147A7B6C07EE903A21
:10215800F8EE677A77EE677AC7ED147A0023FB64A6
:10216800012387F857300EE07A6C97F857301946F4
:10217800B44B53F821309A420AD397F857300133B9
:10218800DBB287F8573097F857300A2BECD100E0CC
:1021980000BF97F857301A467B6E1A44FB6C1344FD
:1021A8003A6ED31A3B66FB6D03F40063002B02D131
:1021B8007B6E002B02D03B6E013B3B66FB6D03F050
:1021C8000303002B02D03B6E013B3B66FB6D03F023
:1021D8000403002B37D0FB6D03F00203002B11D052
:1021E800FB6D03F00103002B01D02D2300E02B230E
:1021F80087F82E30FB6807F12E010122184601F0FE
:102208006CF81CE0FB6D03F00103002B17D02023B2
:1022180087F82D30FB6807F12D010122184601F0DF
:102228005CF80CE0302387F82C30FB6807F12C01B0
:102238000122184601F051F83B6E013B3B663B6EAC
:10224800002BEFDC5AE0FB6D03F00803002B10D1E4
:102258000CE0202387F82B30FB6807F12B010122C3
:10226800184601F03AF83B6E013B3B663B6E002B8B
:10227800EFDCFB6D03F00203002B11D0FB6D03F0C4
:102288000103002B01D02D2300E02B2387F82A30EF
:10229800FB6807F12A010122184601F01EF82DE01B
:1022A800FB6D03F00103002B28D0202387F8293089
:1022B800FB6807F129010122184601F00EF81DE01C
:1022C8007A6C97F8573019465E4B53F82130B2FBB9
:1022D800F3F15D4BA3FB0123DA0813469B0013447B
:1022E8005B00CA1AD3B23033DBB287F82830FB68F8
:1022F80007F128010122184600F0EFFF97F8573040
:102308005A1ED2B287F85720002BD9D10CE03023BF
:1023180087F82730FB6807F127010122184600F0EB
:10232800DCFFFB6C013BFB64FB6C002BEFDC7B6E82
:10233800082B03DD082387F8573003E07B6EDBB2F8
:1023480087F8573097F857301A467B6E9B1A7B668A
:1023580097F85730002B04D1FB6D03F40063002B72
:1023680009D02E2387F82630FB6807F126010122C1
:10237800184600F0B2FF97F857305BB21846FEF7E0
:1023880069FFB0EE407AD7ED147A67EE277AFDEE52
:10239800E77A17EE903A7B6423E07A6C97F8573027
:1023A800013BDBB287F8573097F857301946254B71
:1023B80053F82130B2FBF3F1234BA3FB0123DA08D6
:1023C80013469B0013445B00CA1AD3B23033DBB206
:1023D80087F82530FB6807F125010122184600F02F
:1023E8007CFF97F85730002BD7D10CE0302387F8C3
:1023F8002430FB6807F124010122184600F06DFF24
:102408007B6E013B7B667B6E002BEFD1FB6D03F08F
:102418000803002B00F058823B6E002B40F35482D7
:10242800202387F82330FB6807F12301012218468F
:1024380000F053FF3B6E013B3B663B6E002BEFD138
:1024480042E200BF1C7B0008CDCCCCCCFB6D03F076
:10245800C003002B1AD1FB6D03F01003002B05D02D
:102468007B681A1D7A601B687B6404E07B681A1D10
:102478007A601B687B647B6C002B17DAFB6D43F07A
:102488000303FB657B6C5B427B640FE0FB6D03F031
:102498001003002B05D07B681A1D7A601B687B64CB
:1024A80004E07B681A1D7A601B687B647B6E002BD6
:1024B80005D17B6C002B02D17B6E01337B66FB6DF3
:1024C800DBB203F0C003C02B0AD0C02B56DC802B34
:1024D80020D0802B52DC002B02D0402B34D04DE092
:1024E800012387F857300EE07A6C97F85730194671
:1024F800AB4B53F821309A420AD397F8573001333F
:10250800DBB287F8573097F857300A2BECD135E013
:1025180000BF33E0012387F857300EE07A6C97F854
:10252800573019469F4B53F821309A420AD397F8EF
:1025380057300133DBB287F8573097F85730082BFC
:10254800ECD11BE000BF19E0012387F857300EE0FB
:102558007A6C97F857301946934B53F821309A42C2
:102568000AD397F857300133DBB287F8573097F81A
:1025780057300C2BECD100E000BF00BF97F8573064
:102588001A467B6E934204DD7B6EDBB287F85730C8
:1025980008E097F857301A467B6E934202DA97F8AC
:1025A80057307B663B6E002B07D0FB6D03F00303AF
:1025B800002B02D03B6E013B3B663A6E7B6E9A4223
:1025C80004DD3A6E7B6ED31A3B6601E000233B665E
:1025D800FA6D40F6C4031340B3F5046F06D13B6EA1
:1025E800002B12D03B6E013B3B660EE0FB6D03F403
:1025F8000C63B3F5086F08D13B6E022B03DD3B6E0D
:10260800023B3B6601E000233B66FB6D03F00403DD
:10261800002B5AD0FB6D03F00203002B11D0FB6D89
:1026280003F00103002B01D02D2300E02B2387F8B2
:102638002230FB6807F122010122184600F04DFE06
:102648002FE0FB6D03F00103002B0AD0202387F84D
:102658002130FB6807F121010122184600F03DFEF8
:102668001FE0FB6D03F40C63B3F5086F19D1302339
:1026780087F82030FB6807F120010122184600F096
:102688002CFEFB6D03F02003002B01D0582300E043
:102698007823FB77FB6807F11F010122184600F039
:1026A8001CFE3B6E002B00F08A803023BB77FB6852
:1026B80007F11E010122184600F00FFE3B6E013B98
:1026C8003B663B6E002BF0D179E03B6E002B13D0BC
:1026D800FB6D03F00803002B0ED120237B77FB68EA
:1026E80007F11D010122184600F0F7FD3B6E013B82
:1026F8003B663B6E002BF0D1FB6D03F00203002B11
:1027080010D0FB6D03F00103002B01D02D2300E056
:102718002B233B77FB6807F11C010122184600F0C8
:10272800DCFD0DE0FB6D03F00103002B08D0202336
:10273800FB76FB6807F11B010122184600F0CDFD6E
:10274800FB6D03F40C63B3F5046F09D13023BB763A
:10275800FB6807F11A010122184600F0BEFD2EE0C1
:10276800FB6D03F40C63B3F5086F28D130237B7637
:10277800FB6807F119010122184600F0AEFDFB6D58
:1027880003F02003002B01D0582300E078233B7688
:10279800FB6807F118010122184600F09EFD0EE0C3
:1027A8001C7B0008447B0008647B00083023FB7511
:1027B800FB6807F117010122184600F08EFD97F813
:1027C80057301A467B6E9342F0DC61E0FB6DDBB25A
:1027D80003F0C003C02B0AD0C02B4FDC802B1CD0C9
:1027E800802B4BDC002B02D0402B37D046E07A6C94
:1027F8003E497B6E51F82330B2FBF3F13C4BA3FB0F
:102808000123DA0813469B0013445B00CA1AD3B2AB
:102818003033DBB287F8573030E0FB6D03F020032C
:10282800002B0DD07A6C33497B6E51F82330B2FB04
:10283800F3F303F00F03304AD35C87F857301DE0F9
:102848007A6C2C497B6E51F82330B2FBF3F303F01A
:102858000F032A4AD35C87F857300FE07A6C28496F
:102868007B6E51F82330B2FBF3F3DBB203F00703BE
:10287800DBB23033DBB287F8573000BF97F85730F8
:10288800BB75FB6807F116010122184600F025FD0B
:102898007B6E5A1E7A66002B98D1FB6D03F00803F5
:1028A800002B11D03B6E002B0EDD20237B75FB68BF
:1028B80007F115010122184600F00FFD3B6E013BA0
:1028C8003B663B6E002BF0D1BB685A1CBA601B7884
:1028D80087F8573097F85730002B7EF4D3ADBB6D8F
:1028E80018466837BD46BDEC028B80BD1C7B0008CE
:1028F800CDCCCCCC447B0008F47A0008087B0008D7
:10290800647B000880B483B000AF78607B684FF6C2
:10291800FF721A807B684FF6FF725A807B684FF609
:10292800FF721A817B684FF6FF729A807B684FF6B8
:10293800FF72DA807B684FF6FF725A817B684FF628
:10294800FF729A817B684FF6FF72DA817B680022FA
:102958001A617B6870221A757B68074A9A617B68DE
:1029680001221A777B6800225A7700BF0C37BD46D0
:102978005DF8047B704700BFA086010080B58AB06F
:1029880000AF7860396007F11803184602F0CCF8F8
:102998003B681B88BB833B685B887B833B681A7DED
:1029A8007B6883F838207B68103307F118021146DA
:1029B800184602F0D8F80346B3F1FF3F02D14FF0B2
:1029C800FF3392E07B6803F110027B6893F838309C
:1029D8001946104602F01DF90346B3F1FF3F02D134
:1029E8004FF0FF3381E07B6803F110023B681B69FD
:1029F8001946104602F0CDF80346B3F1FF3F02D165
:102A08004FF0FF3371E007F10803184603F070FA3E
:102A18003B681B897B813B689B88BB813B68DB8863
:102A2800FB813B685A897B685A877B68243307F1A6
:102A380008021146184603F07FFA0346B3F1FF3F38
:102A480002D14FF0FF3350E07B6824330021184651
:102A580003F090FB0346B3F1FF3F02D14FF0FF3381
:102A680043E07B6803F124023B681B7F194610464C
:102A780003F03EFB0346B3F1FF3F02D14FF0FF33B3
:102A880033E07B6803F124023B689B6919461046D2
:102A980003F0F0FA0346B3F1FF3F02D14FF0FF33E2
:102AA80023E03B685B7F184603F0CCFA7B685B8FBA
:102AB800184603F08FFA7A683B689B8919461046D6
:102AC80001F0BEFF7B6803F108023B68DB89194609
:102AD800104601F09CFF7B681B68002B04D07B68C4
:102AE8009A887B681B689A61002318462837BD4678
:102AF80080BD80B584B000AF78600023FB60786843
:102B080000F0F2F80C220121786800F07FF8024604
:102B1800FB681343FB6000220321786800F076F815
:102B28000246FB681343FB60FEF7CEF944F202024B
:102B38000221786800F02FF80246FB681343FB6017
:102B48004FF406620121786800F025F80246FB6818
:102B58001343FB604AF66C120421786800F01BF8F6
:102B68000246FB681343FB60FEF7AEF9012202211F
:102B7800786800F010F80246FB681343FB60786839
:102B880000F064F90246FB681343FB60FB681846D3
:102B98001037BD4680BD80B584B000AF78600B4665
:102BA800FB7013463B800023BB6097F903305B0042
:102BB8005BB243F001035BB2DBB23B723B881B0A9A
:102BC8009BB2DBB27B723B88DBB2BB7207F10803B6
:102BD8000321184600F06EF90346FB727B685B8F91
:102BE800184603F0BFF97B68243307F10801042273
:102BF800184603F0E9FAF8607B685B8F184603F023
:102C0800E9F9FB6818461037BD4680BD80B584B029
:102C180000AF78600B46FB701346BB7000233B8106
:102C28000023FB60FB783B72BB787B727B681033B8
:102C38007021184601F0EDFF7B68103307F1080199
:102C48000222184602F00FF80246FB681343FB60A5
:102C5800FB6818461037BD4680BD80B588B002AF06
:102C6800F8600B467A60FB72FB68103370211846D7
:102C780001F0CFFFFB6803F1100007F10B010123FE
:102C880000937B68012202F096F878617B69184608
:102C98001837BD4680BD80B584B000AF7860396014
:102CA80000233B817B6810334D21184601F0B1FFAA
:102CB8007B68103307F108010222184602F027F852
:102CC800F8603B7A1BB21B021AB27B7A1BB2134321
:102CD8001BB29BB2C3F30B039AB23B681A80FB6822
:102CE80018461037BD4680BD80B582B000AF786009
:102CF8007B681B68002B04D07B689A887B681B68FC
:102D08009A61FEF7D3F87B681B68002B07D07B68B5
:102D18009B8819467B681B681A460B049361FEF76B
:102D2800C5F87B681B68002B04D07B689A887B6891
:102D38001B689A61FEF7BAF800BF0837BD4680BD28
:102D480080B586B000AF78600B46FB700023FB753A
:102D58000023FB73FB78022B08D0022B0CDC002B22
:102D680007D0012B08D10A23FB7508E00523FB7562
:102D780005E00C23FB7502E04FF0FF331CE007F180
:102D88000F031A4601217868FFF767FF3861FB7B5C
:102D980023F00F03DBB2FB73FA7BFB7D1343DBB23B
:102DA800FB73FB7B1A4601217868FFF72FFF024669
:102DB8003B6913433B613B6918461837BD4680BDE4
:102DC80080B586B000AF7860396000237B814FF012
:102DD80000037B614FF000033B6107F10A031946CA
:102DE8007868FFF758FFF8607B8907EE903AF8EEAD
:102DF800677A9FED127A27EE877ADFED116AC7EEC0
:102E0800267AC7ED057AD7ED057A9FED0E7A37EE6B
:102E1800C77AF2EE006AC7EE267AC7ED047A97ED14
:102E2800047ADFED096AC7EE267A3B68C3ED007ABB
:102E3800FB6818461837BD4680BD00BF3333534082
:102E4800000080453333D33F6F12833A80B584B096
:102E580000AF78600023FB6048F2CF122521786824
:102E6800FFF799FE0246FB681343FB6043F27F625B
:102E780028217868FFF78FFE0246FB681343FB6042
:102E8800042227217868FFF786FE0246FB68134371
:102E9800FB6040F21E2229217868FFF77CFE02467B
:102EA800FB681343FB60FEF708F8FB681846103709
:102EB800BD4680BD80B485B000AF78600B46FB701E
:102EC800FF23FB730023BB7322E0BB7B7A681344A8
:102ED8001A78FB7B5340FB7300237B7312E097F94E
:102EE8000F30002B08DA97F90F305B005BB283F0E4
:102EF8001D035BB2FB7302E0FB7B5B00FB737B7B18
:102F080001337B737B7B072BE9D9BB7B0133BB7315
:102F1800BA7BFB789A42D8D3FB7BDB43DBB21846FB
:102F28001437BD465DF8047B7047000080B485B057
:102F380000AF7860114B1B78FB7312E07B6819684F
:102F4800FA7B13465B0013449B000D4A13449942D5
:102F580007D1FA7B13465B0013449B00084A1344CD
:102F680005E0FB7B5A1EFA73002BE7D100231846B5
:102F78001437BD465DF8047B704700BF947B00089A
:102F88005405002080B584B000AF78600B46FB7014
:102F98000023FB60FB78002B07D0104B1B687A6876
:102FA8009A4202D14FF0FF3313E00C4B1B687A684A
:102FB8009A420DD07B68FA781146184600F082FADA
:102FC800F860FB68B3F1FF3F02D0044A7B681360E6
:102FD800FB6818461037BD4680BD00BF4C05002071
:102FE80080B582B000AF78607B68002B30D07B68FA
:102FF8004FF6FF721A807B684FF6FF725A807B6823
:103008004FF4E1325A607B6801221A727B68002211
:103018005A727B6801229A727B680C331422002151
:10302800184604F0C9FB7B68203314220021184697
:1030380004F0C2FB7B6800225A637B6800229A6313
:103048007B68012283F83C207B6842F210721A6484
:1030580000BF0837BD4680BD80B584B000AF78603A
:1030680039607B680433FB6044223968F868FDF7EF
:1030780065FC01217868FFF785FF0346184610377D
:10308800BD4680BD80B584B000AF7860396000214E
:103098007868FFF777FF0346B3F1FF3F2FD07B68CF
:1030A8003A689A607B681846FFF740FF0346BB60A2
:1030B800BB68002B02D14FF0FF3322E07B689B688E
:1030C800002B02D14FF0FF331BE0BB6800221A72BD
:1030D8007B689A6807F108031146184600F092FCCD
:1030E800F860FB68012B02D0FB68022B02D14FF07D
:1030F800FF3306E0BB6801221A72002301E04FF09B
:10310800FF3318461037BD4680BD80B584B000AF88
:1031180078600B46FB7000217868FFF733FF0346A1
:10312800B3F1FF3F2FD07B68FA785A737B68184653
:10313800FFF7FCFE0346BB60BB68002B02D14FF0D3
:10314800FF3322E07B685B7B022B02D94FF0FF3311
:103158001BE0BB6800221A727B685A7B07F10803E0
:103168001146184600F07CFCF860FB68012B02D081
:10317800FB68022B02D14FF0FF3306E0BB68012247
:103188001A72002301E04FF0FF3318461037BD468E
:1031980080BD80B584B000AF78600B46FB7000211D
:1031A8007868FFF7EFFE0346B3F1FF3F2FD07B6847
:1031B800FA789A737B681846FFF7B8FE0346BB6037
:1031C800BB68002B02D14FF0FF3322E07B689B7B6A
:1031D800032B02D94FF0FF331BE0BB6800221A72A1
:1031E8007B689A7B07F108031146184600F066FCD5
:1031F800F860FB68012B02D0FB68022B02D14FF06C
:10320800FF3306E0BB6801221A72002301E04FF089
:10321800FF3318461037BD4680BD80B584B000AF77
:1032280078600B46FB7000217868FFF7ABFE034619
:10323800B3F1FF3F2FD07B68FA781A737B68184682
:10324800FFF774FE0346BB60BB68002B02D14FF04A
:10325800FF3322E07B681B7B022B02D94FF0FF3340
:103268001BE0BB6800221A727B681A7B07F108030F
:103278001146184600F06EFCF860FB68012B02D07E
:10328800FB68022B02D14FF0FF3306E0BB68012236
:103298001A72002301E04FF0FF3318461037BD467D
:1032A80080BD80B485B000AF78600B46FB707B684A
:1032B800002B0CD07B681B68002B08D07B68FB6058
:1032C800FB68002B03D0FB68FA7883F8522000BF14
:1032D8001437BD465DF8047B704780B58AB000AFEF
:1032E800F860B9607A6000233B620021F868FFF754
:1032F80049FE0346B3F1FF3F7CD0FB681846FFF751
:1033080015FE03467B61FB68FB61FB691033BB61FB
:1033180000237B627B69002B01D100236CE07B6872
:10332800002B01D1002367E0BB68002B01D10023EB
:1033380062E07B691B7A83F00103DBB2002B04D0C7
:1033480007F11403184600F01DFBFB6893F84030A2
:10335800002B44D03EE0B86904F014FA0346002B71
:103368000FD0FB6993F8523083F00103DBB2002BD6
:103378003DD1FDF79BFDB86904F004FA0346002B24
:10338800F7D104F062F87B6A5A1C7A62BA6813446F
:103398001B781946B86904F090F9FB6993F8503026
:1033A80083F00103DBB2002B12D0B86904F0D9F91D
:1033B800034683F00103DBB2002B09D007F11403A5
:1033C8000121184600F014FCFB69012283F8502003
:1033D80004F033F87A6A7B689A42BCD308E0FB6849
:1033E8007A68B968184600F05DF9786200E000BFB5
:1033F8007B6A01E04FF0FF3318462837BD4680BD91
:1034080080B584B000AF786039600023BB600021CC
:103418007868FFF7B7FD0346B3F1FF3F23D00023D9
:10342800FB607B68002B01D100231EE03B68002B6A
:1034380011D1002319E03A68FB68134401221946A8
:10344800786800F02FF90346012B01D0FB680CE0E7
:10345800FB680133FB603A68FB6813441B78002B58
:10346800E9D1FB6801E04FF0FF3318461037BD463D
:1034780080BD000080B485B000AF78600623FB7380
:1034880012E07B681968FA7B13465B0013449B00C3
:103498000B4A1344994207D1FA7B13465B00134445
:1034A8009B00074A134405E0FB7B5A1EFA73002B66
:1034B800E7D1002318461437BD465DF8047B7047F2
:1034C8005405002080B588B000AF78600B46FB70CB
:1034D8007B68BB6144237B610623FB777B68002BF9
:1034E80002D14FF0FF33D2E0BB69DB6C002B03D075
:1034F800BB699B6C002B02D14FF0FF33C7E0BB695F
:10350800DB6B002B03D0BB69DB6B002B02D14FF0C8
:10351800FF33BCE0FB78002B08D07868FFF7AAFFE0
:103528000346002B02D04FF0FF33B0E0BB6993F89D
:103538004030002B0AD003F078FF034683F00103E4
:10354800DBB2002B02D04FF0FF33A0E0524B1B68D8
:103558007A689A4200F09A801DE0FA7F4F49134634
:103568005B0013449B000B4404331B687A689A423F
:1035780011D1BB6993F84030002B07D0BB690022FA
:1035880083F85020BB69002283F85120424A7B68A7
:10359800136000237BE0FB7F5A1EFA77002BDCD1F7
:1035A800BB699888BB69D98807F10B033B4A00F0CF
:1035B80055F978617B69002B62D1FB7A1946374A45
:1035C8000B465B000B449B00134404337A681A6073
:1035D800BB69002283F85020BB69002283F8512080
:1035E800FB7A1A4613465B0013449B002B4A13448C
:1035F8003B617B683A691A607868FFF73BFF0346CE
:10360800FB6000BFBB691033184604F0AAF80346F4
:1036180083F00103DBB2002BF4D100BFBB69243374
:10362800184604F09EF8034683F00103DBB2002B32
:10363800F4D1BB6903F12400BB69D96CBB69DB6BAE
:103648001A4604F025F8BB6903F11000BB69996CB0
:10365800BB699B6B1A4604F01BF8BB6993F84030B2
:10366800002B08D0BA6907F10C030D49184600F081
:10367800A5FA03F0E2FE084A7B681360012306E01E
:103688007B6800221A604FF0FF3300E000231846E1
:103698002037BD4680BD00BF5005002054050020DE
:1036A800BD37000880B588B000AFF860B9607A60AF
:1036B800F868FFF7DFFE03463B61FB68BB61BB6947
:1036C80010337B610023FB613B69002B01D1002390
:1036D8006CE07B68002B01D1002367E0BB68002BFE
:1036E80001D1002362E03B691B7A83F00103DBB25E
:1036F800002B54D007F11003184600F043F94EE0B0
:10370800BB6993F84030002B3FD0786904F03AF851
:103718000346002B0FD0BB6993F8523083F00103A6
:10372800DBB2002B40D1FDF7C1FB786904F02AF821
:103738000346002BF7D103F088FEFB695A1CFA6197
:10374800BA6813441B781946786903F0B6FFBB6959
:1037580093F8503083F00103DBB2002B12D0786964
:1037680003F0FFFF034683F00103DBB2002B09D00F
:1037780007F110030121184600F03AFABB6901224B
:1037880083F8502003F059FE09E0B869FB695A1C18
:10379800FA61BA6813441B78194600F015FBFA69F8
:1037A8007B689A42ACD300E000BFFB69184620371B
:1037B800BD4680BD80B584B000AF78600B46FB7015
:1037C8007B68FB60FB78002B1ED1FB68243318460E
:1037D80003F0D8FF0346002B09D0FB6800211846E8
:1037E80000F068FAFB68002283F8512033E0FB6898
:1037F800184600F015FB0346FB72FB682433FA7A7F
:103808001146184603F059FFFB78012B23D1FB68BA
:103818001033184603F07EFF0346BB72FB68BA7A82
:103828001146184600F0B4FAFB6893F85030002BA4
:1038380011D0FB681033184603F093FF0346002BA2
:1038480009D0FB680121184600F034FAFB68002211
:1038580083F8502000BF1037BD4680BD80B58CB0BE
:1038680000AFBA607B600346FB810B46BB8107F162
:10387800140300221A605A609A60DA601A615A6169
:103888004FF6FF73BB824FF6FF73FB8207F11402FA
:10389800B989F889BB6800F089FC0346FB85FB8D74
:1038A8004FF6FF72934201D1012363E0FA8D334949
:1038B80013469B001344DB000B4408331B88FA892A
:1038C8009A420BD1FA8D2D4913469B001344DB0015
:1038D8000B4410331B88BA899A4227D0FA8D1346B5
:1038E8009B001344DB00254A13440021184600F0CE
:1038F80031FEFB8DDBB207F114021146184600F0C9
:10390800B9FDFA8D13469B001344DB001B4A134490
:103918000121184600F01EFEFA8D13465B00134481
:103928009B001A46BB68134400221A72FB8DDAB258
:103938007B681A70F98DFA8D0B469B000B44DB00EF
:103948000E4919440E4813465B0013449B00034478
:103958001960FA8DF98D0B465B000B449B001946E4
:10396800BB68194413465B0013449B00044A134484
:103978000B60002318463037BD4680BD100000207C
:103988009C05002080B584B000AF78607B681B6818
:10399800184600F0ADFC0346174A13607B681B68A5
:1039A800FB60154B1B689B889BB2FB72124B1B6814
:1039B800184601F019F8F97AFA7A0B469B000B447D
:1039C800DB000E4919440E4813465B0013449B0064
:1039D80003441960FA7A0A4913465B0013449B00B2
:1039E8000B44083301221A70FB6801221A72002363
:1039F80018461037BD4680BDE8050020100000209D
:103A08009C05002080B582B000AF786039607B6883
:103A18001B681B68104A13607B681B68184600F017
:103A280067FC03460D4A13600B4B1B6800221A7291
:103A38000A4B1B683A689A61084B1B68184600F0E5
:103A4800D3FF054B1B6801221A72044B1B68DB6904
:103A580018460837BD4680BDE4050020E80500206B
:103A680080B582B000AF78600B46FB707B681B683E
:103A78001B68104A13607B681B68184600F038FC06
:103A880003460D4A13600B4B1B6800221A720A4B3F
:103A98001B68FA7883F82020074B1B68184600F04B
:103AA800A3FF044B1B6801221A720023184608372B
:103AB800BD4680BDE4050020E805002080B582B041
:103AC80000AF78600B46FB707B681B681B681F4A59
:103AD80013607B681B68184600F00AFC03461C4A02
:103AE80013601B4B1B689B889BB2042B08D1FB7887
:103AF800002B02D0FB78022B02D14FF0FF3321E0DC
:103B0800134B1B689B889BB2052B08D1FB78002BB5
:103B180002D0FB78022B02D14FF0FF3312E00B4B9F
:103B28001B6800221A720A4B1B68FA7883F8212056
:103B3800074B1B68184600F057FF044B1B6801220F
:103B48001A72002318460837BD4680BDE4050020D8
:103B5800E805002080B582B000AF78600B46FB70A6
:103B68007B681B681B68134A13607B681B681846D0
:103B780000F0BEFB0346104A1360FB78002B01D10E
:103B8800022312E00B4B1B6800221A720A4B1B68B7
:103B9800FA7883F82220084B1B68184600F024FFA7
:103BA800044B1B6801221A72002318460837BD46C9
:103BB80080BD00BFE4050020E805002080B584B082
:103BC80000AFF860B9607A60074ABB681360F868AC
:103BD80000F0CCFA03461946044A7B6842F82130C3
:103BE80000BF1037BD4680BDEC050020F005002061
:103BF80080B584B000AF78600B46FB707B681B68AB
:103C08001B682A4A13607B681B68184600F070FB23
:103C18000346274A1360264B1B681B68FB60FB782A
:103C2800002B02D0012B07D00DE0FB68DB6843F0C6
:103C38002002FB68DA6006E0FB68DB6843F080027C
:103C4800FB68DA6000BF1A4B1B689B889BB2052B88
:103C580026D801A252F823F0793C0008813C0008DC
:103C6800893C0008913C0008993C0008A13C0008E8
:103C7800352003F0F2FB14E0362003F0EEFB10E0F1
:103C8800372003F0EAFB0CE0442003F0E6FB08E0F1
:103C9800452003F0E2FB04E0572003F0DEFB00E0E0
:103CA80000BF00BF1037BD4680BD00BFE40500203F
:103CB800E805002080B584B000AF78600B46FB7043
:103CC8007B681B681B68304A13607B681B68184652
:103CD80000F00EFB03462D4A13602C4B1B681B6833
:103CE800FB60FB78002B02D0012B07D00DE0FB68AE
:103CF800DB6823F02002FB68DA6006E0FB68DB681B
:103D080023F08002FB68DA6000BFFB68DB6803F021
:103D18002003002B33D1FB68DB6803F08003002B02
:103D28002DD11A4B1B689B889BB2052B26D801A264
:103D380052F823F0553D00085D3D0008653D000838
:103D48006D3D0008753D00087D3D0008352003F0F5
:103D580091FB14E0362003F08DFB10E0372003F0D0
:103D680089FB0CE0442003F085FB08E0452003F0C4
:103D780081FB04E0572003F07DFB00E000BF00BF9B
:103D88001037BD4680BD00BFE4050020E8050020CF
:103D980080B584B000AF78600B46FB707B681B6809
:103DA800184600F0A5FA0346064A1360054B1B683F
:103DB8001B68FB60FA78FB685A6000BF1037BD4685
:103DC80080BD00BFE805002080B584B000AF7860F2
:103DD8000B46FB707B681B68184600F089FA03469F
:103DE8000E4A13600D4B1B681B68BB600B4B1B68AE
:103DF8005B6AFB6004E0FB685A1EFA60002B09D07E
:103E0800BB681B6803F08003002BF4D0FA78BB680A
:103E18005A6000E000BF1037BD4680BDE8050020AD
:103E280080B584B000AF78607B681B68184600F0E6
:103E38005FFA0346064A1360054B1B681B68FB6064
:103E4800FB685B68DBB218461037BD4680BD00BF13
:103E5800E8050020684620F007018D4689B500AFC7
:103E68001A4B1B6803F02003002B10D0174BDB689C
:103E780003F02003002B0AD0144B144A1B6813606C
:103E8800134B1B68134A12680021104698470F4BC2
:103E98001B6803F08003002B12D00C4BDB6803F087
:103EA8008003002B0CD0094B1B68084A23F0010340
:103EB8001360074B1B68074A126801211046984790
:103EC80000BFBD46BDE889408546704700100140E7
:103ED800EC050020F0050020684620F007018D461B
:103EE80089B500AF1A4B1B6803F02003002B10D0D4
:103EF800174BDB6803F02003002B0AD0144B144A3D
:103F08001B681360134B1B68134A52680021104644
:103F180098470F4B1B6803F08003002B12D00C4B03
:103F2800DB6803F08003002B0CD0094B1B68084AA0
:103F380023F001031360074B1B68074A52680121ED
:103F48001046984700BFBD46BDE889408546704782
:103F580000440040EC050020F0050020684620F0F1
:103F680007018D4689B500AF1A4B1B6803F0200383
:103F7800002B10D0174BDB6803F02003002B0AD06E
:103F8800144B144A1B681360134B1B68134A92683E
:103F98000021104698470F4B1B6803F08003002B45
:103FA80012D00C4BDB6803F08003002B0CD0094BBC
:103FB8001B68084A23F001031360074B1B68074A74
:103FC800926801211046984700BFBD46BDE8894068
:103FD8008546704700480040EC050020F0050020A9
:103FE800684620F007018D4689B500AF1A4B1B685B
:103FF80003F02003002B10D0174BDB6803F02003DD
:10400800002B0AD0144B144A1B681360134B1B680F
:10401800134AD2680021104698470F4B1B6803F0DB
:104028008003002B12D00C4BDB6803F08003002BBD
:104038000CD0094B1B68084A23F001031360074B97
:104048001B68074AD26801211046984700BFBD4641
:10405800BDE8894085467047004C0040EC050020CB
:10406800F0050020684620F007018D4689B500AFAD
:104078001A4B1B6803F02003002B10D0174BDB688A
:1040880003F02003002B0AD0144B144A1B6813605A
:10409800134B1B68134A12690021104698470F4BAF
:1040A8001B6803F08003002B12D00C4BDB6803F075
:1040B8008003002B0CD0094B1B68084A23F001032E
:1040C8001360074B1B68074A12690121104698477D
:1040D80000BFBD46BDE88940854670470050004096
:1040E800EC050020F0050020684620F007018D4609
:1040F80089B500AF1A4B1B6803F02003002B10D0C2
:10410800174BDB6803F02003002B0AD0144B144A2A
:104118001B681360134B1B68134A52690021104631
:1041280098470F4B1B6803F08003002B12D00C4BF1
:10413800DB6803F08003002B0CD0094B1B68084A8E
:1041480023F001031360074B1B68074A52690121DA
:104158001046984700BFBD46BDE889408546704770
:1041680000140140EC050020F005002080B582B065
:1041780000AF78607B681B68184600F0B9F8034602
:10418800094A1360084B1B681B68B3F1FF3F05D051
:10419800054B1B689B889BB2DBB200E000231846E6
:1041A8000837BD4680BD00BFE805002080B487B051
:1041B80000AFBA607B600346FB810B46BB810023DE
:1041C800FB750023BB75FB894FF6FF72934204D041
:1041D800BB894FF6FF72934202D14FF6FF7378E026
:1041E8000023BB8268E0BA8A3D4913465B0013444A
:1041F8009B000B4402331B88FA899A4259D1002349
:104208007B8251E07A8A374913465B0013449B004E
:104218000B4402331B88BA899A4242D1BA8A304980
:1042280013465B0013449B000B44043319687A8AD5
:104238002C4813465B0013449B00034404331B685B
:1042480099422ED1BA8A264913465B0013449B0033
:104258000B441B78FB75FB7D9B00BA681344BA8A34
:104268001A80FB7D9B00BA6813447A8A5A80FA7DCB
:1042780013465B0013449B001A467B6813445B6833
:10428800002B02D1FB7D9BB223E0BB7D0133BB75C4
:10429800BB7D062B05D1BB7D013BBB75BB7D9BB2AE
:1042A80017E07B8A01337B820F4B1B887A8A9A42FC
:1042B800A8D3BB8A0133BB820C4B1B88BA8A9A42AB
:1042C80091D3BB7D002B02D0FB7D9BB201E04FF662
:1042D800FF7318461C37BD465DF8047B704700BF66
:1042E800987B0008347C0008D07C0008D27C000849
:1042F80080B485B000AF78600623FB7315E07B6857
:104308001B681B681968FA7B124813469B00134404
:10431800DB0003441B68994207D1FA7B13469B00D4
:104328001344DB000B4A13440DE0FB7B5A1EFA735F
:10433800002BE4D1084B1B781A4613469B00134404
:10434800DB00044A134418461437BD465DF8047B65
:10435800704700BF100000202801002080B483B0FF
:1043680000AF78600B46FB707B689B88052B75D87F
:1043780001A252F823F000BF99430008BB4300088C
:10438800DD430008FF4300082144000843440008B7
:10439800FB78002B06D0354B1B68344A43F01003DA
:1043A80013605CE0314B1B68304A23F01003136044
:1043B80055E0FB78002B06D02D4B1B682C4A43F4A4
:1043C800003313604BE02A4B1B68294A23F400335F
:1043D800136044E0FB78002B06D0254B1B68244A69
:1043E80043F4802313603AE0214B1B68204A23F4EE
:1043F8008023136033E0FB78002B06D01C4B1B682E
:104408001B4A43F40023136029E0194B1B68184A20
:1044180023F40023136022E0FB78002B06D0144B12
:104428001B68134A43F48013136018E0104B1B6891
:104438000F4A23F48013136011E0FB78002B06D099
:104448000A4B1B68094A43F02003136007E0074B37
:104458001B68064A23F02003136000E000BF00BF7A
:104468000C37BD465DF8047B704700BF44380240F6
:104478004038024080B483B000AF03463960FB7116
:10448800FB799B003A6813441B881846FA792E4931
:1044980003465B0003449B000B44023318882B49F6
:1044A80013469B001344DB000B44083302461A8072
:1044B800FB799B003A6813445B881846FA792449CB
:1044C80003465B0003449B000B44023318881F49D2
:1044D80013469B001344DB000B44103302461A803A
:1044E800FB799B003A6813441B881846FA791649E9
:1044F80003465B0003449B000B44083319681348C8
:1045080013469B001344DB0003440C331960FB790A
:104518009B003A6813445B881846FA790C490346AD
:104528005B0003449B000B44083319680748134693
:104538009B001344DB0003441433196000BF0C379D
:10454800BD465DF8047B7047987B0008100000208A
:10455800347C000880B59EB000AF78600B46FB70D5
:104568007B681B894FF6FF7293422BD07B681B8AAE
:104578004FF6FF72934225D07B681B891A467B68E9
:10458800DB681B021343FB607B681B8A1A467B6847
:104598005B691B0213433B614FF0FF337B614FF4B0
:1045A80083633B644FF483637B644FF0FF33BB64E6
:1045B8007B68DB687B67FA7807F10C0311461846BD
:1045C80002F0C4FC00BF7837BD4680BD80B588B016
:1045D80000AF78600023FB610023BB6100237B618F
:1045E8007B681B683B617B689B88184600F09EF8D7
:1045F80007EE900AF8EE676A7B689B6907EE903AC7
:10460800F8EE677A86EEA77AF1EE006AC7EE267AA8
:10461800B7EE007A77EEC77AFCEEE77A17EE903AB3
:10462800FB607B689B88184600F080F80246FB68B0
:1046380001339B00B2FBF3F3BB607B689B69BA68EC
:10464800D31A002BB8BF5B4207EE903AF8EEE76A40
:104658007B689B6907EE903AB8EE677AC6EE877A70
:104668009FED307A67EE877AB7EE007AF4EEC77A74
:10467800F1EE10FA1DDD7B689B69BA68D31A002B2E
:10468800B8BF5B4207EE903AF8EEE76A7B689B6931
:1046980007EE903AB8EE677AC6EE877A9FED217AF0
:1046A80067EE877AFCEEE77A17EE902A7B68DA6184
:1046B80033E07B68BA68DA617B689B88184600F04B
:1046C80035F8024613469B0013449A001A447B6847
:1046D8009B699B00B2FBF3F3BB61BB69124AA2FB67
:1046E80003235B091B01FB61FB691B09642202FBB5
:1046F80003F3BA69D31A7B617B691B0132330A4A17
:10470800A2FB03235B0903F00F03FA691343FB6160
:10471800FB699BB21A463B699A6000BF2037BD46C9
:1047280080BD00BF0000C8421F85EB5180B588B02E
:1047380000AF0346FB8007F10C031846FCF7E4FAC8
:10474800FB88052B1AD801A252F823F06D47000800
:104758007147000875470008794700087D47000839
:1047680081470008BB690BE07B6909E07B6907E0CA
:104778007B6905E07B6903E0BB6901E000BF0023BA
:1047880018462037BD4680BD80B485B000AF78603C
:104798007B681B68FB607B6893F82130032B25D866
:1047A80001A252F823F000BFC1470008CF47000814
:1047B800D9470008E7470008FB681B6943F48052A3
:1047C800FB681A6113E0FB681A69FB681A610EE05E
:1047D800FB681B6943F44052FB681A6107E0FB68F9
:1047E8001B6943F40052FB681A6100E000BF00BF78
:1047F8001437BD465DF8047B704700BF80B485B0B0
:1048080000AF78607B681B68FB607B6893F8223098
:10481800012B02D0022B05D00BE0FB68DA68FB689D
:10482800DA6006E0FB68DB6843F48052FB68DA6014
:1048380000BF00BF1437BD465DF8047B704780B4E5
:1048480085B000AF78607B681B68FB607B6893F875
:104858002030022B12D0022B17DC002B02D0012BA8
:1048680005D012E0FB68DA68FB68DA600EE0FB68E6
:10487800DB6843F48062FB68DA6007E0FB68DB68AA
:1048880043F4C062FB68DA6000E000BF00BF143781
:10489800BD465DF8047B704780B483B000AF786094
:1048A8000B46FB70FB78002B02D0012B07D00DE0E4
:1048B8007B68DB6823F400527B68DA6006E07B687B
:1048C800DB6843F400527B68DA6000BF00BF0C3736
:1048D800BD465DF8047B704780B483B000AF786054
:1048E8000B46FB70FB78002B02D0012B07D00DE0A4
:1048F8007B68DB6823F008027B68DA6006E07B6887
:10490800DB6843F008027B68DA6000BF00BF0C3741
:10491800BD465DF8047B704780B483B000AF786013
:104928000B46FB70FB78002B02D0012B07D00DE063
:104938007B68DB6823F004027B68DA6006E07B684A
:10494800DB6843F004027B68DA6000BF00BF0C3705
:10495800BD465DF8047B704780B483B000AF7860D3
:104968007B68DB6803F4F8727B68DA607B681B6934
:1049780003F040027B681A617B685A6940F2014380
:1049880013407A68536100BF0C37BD465DF8047B5D
:10499800704780B582B000AF78607B681B681846A6
:1049A800FFF7DAFF7868FFF729FF7868FFF747FF16
:1049B8007868FFF7E9FE7868FFF708FE7B681B68F0
:1049C80001211846FFF788FF7B681B6801211846FC
:1049D800FFF7A2FF7B681B6801211846FFF75CFF01
:1049E80000BF0837BD4680BD80B582B000AF786093
:1049F80001217868FFF7B2FC01217868FFF7AAFD6A
:104A08007868FFF7C6FF00BF0837BD4680BD80B590
:104A180082B000AF78600B467B807B884FF6FF72D0
:104A2800934202D14FF0FF3306E07B687988002279
:104A3800184601F0BBFC002318460837BD4680BD68
:104A480080B582B000AF78600B467B807B884FF6DC
:104A5800FF72934202D14FF0FF3306E07B687988FA
:104A68000122184601F0A2FC002318460837BD466B
:104A780080BD000080B485B000AF7860114B1B7812
:104A8800FB7312E07B681968FA7B13465B001344DA
:104A98009B000D4A1344994207D1FA7B13465B00E9
:104AA80013449B00084A134405E0FB7B5A1EFA7323
:104AB800002BE7D1002318461437BD465DF8047B68
:104AC800704700BFD47C00081006002080B584B071
:104AD80000AF78600B46FB700023FB60FB78002B6F
:104AE80007D0104B1B687A689A4202D14FF0FF3307
:104AF80013E00C4B1B687A689A420DD07B68FA78F1
:104B08001146184600F0DCF9F860FB68B3F1FF3F86
:104B180002D0044A7B681360FB6818461037BD460C
:104B280080BD00BF0806002080B483B000AF786065
:104B38007B68002B11D07B6800221A707B684FF6C7
:104B4800FF725A807B684FF6FF729A807B6800225A
:104B58009A607B6842F210729A8100BF0C37BD469A
:104B68005DF8047B704780B584B000AF7860396029
:104B78007B680433FB6010223968F868FBF7DEFEB7
:104B880001217868FFF7A2FF034618461037BD4693
:104B980080BD80B584B000AF786039600021786846
:104BA800FFF794FF0346B3F1FF3F2CD07B683A68C8
:104BB800DA607B681846FFF75DFF0346BB60002399
:104BC800FB60BB68002B02D14FF0FF331DE0BB68D0
:104BD80000221A727B68DA6807F108031146184642
:104BE80000F0A0FAF860FB68022B04D0FB6840F2E2
:104BF8001952934202D14FF0FF3306E0BB680122FD
:104C08001A72002301E04FF0FF3318461037BD46F3
:104C180080BD80B584B000AF78600B46FB70002182
:104C28007868FFF753FF0346B3F1FF3F15D07B6861
:104C3800FA781A717B681846FFF71CFF0346FB6079
:104C4800FB68002B07D07B681A7907F10C03114623
:104C5800184600F099FA002301E04FF0FF33184698
:104C68001037BD4680BD80B586B000AFF860B9602A
:104C78007A600021F868FFF729FF0346B3F1FF3F88
:104C88003FD0FB681846FFF7F5FE03463B6100235B
:104C98007B613B69002B02D14FF0FF3333E07B6827
:104CA800002B02D14FF0FF332DE0BB68002B02D15F
:104CB8004FF0FF3327E03B691B7A83F00103DBB237
:104CC800002B05D007F11003184600F0EDF97861C4
:104CD8007B69002B02D04FF0FF3314E03B690122BF
:104CE8001A7207F110037A68B968184600F08EFA4C
:104CF80078617B69002B02D04FF0FF3303E07B69BA
:104D080001E04FF0FF3318461837BD4680BD80B527
:104D180086B000AFF860B9607A600021F868FFF7E4
:104D2800D5FE0346B3F1FF3F3FD0FB681846FFF7B7
:104D3800A1FE03463B6100237B613B69002B02D146
:104D48004FF0FF3333E07B68002B02D14FF0FF3385
:104D58002DE0BB68002B02D14FF0FF3327E03B6901
:104D68001B7A83F00103DBB2002B05D007F1100397
:104D7800184600F099F978617B69002B02D04FF052
:104D8800FF3314E03B6901221A7207F110037A68B5
:104D9800B968184600F016FA78617B69002B02D0D2
:104DA8004FF0FF3303E07B6901E04FF0FF33184613
:104DB8001837BD4680BD80B588B002AFF860B960CD
:104DC8007A603B600021F868FFF780FE0346B3F184
:104DD800FF3F47D0FB681846FFF74CFE03463B6190
:104DE80000237B613B69002B02D14FF0FF333BE08E
:104DF8003B6A002B02D07B68002B02D14FF0FF33B7
:104E080032E03B68002B02D0BB68002B02D14FF088
:104E1800FF3329E03B691B7A83F00103DBB2002BE7
:104E280005D007F11003184600F03EF978617B6958
:104E3800002B02D04FF0FF3316E03B6901221A72B3
:104E480007F110003B6A00933B687A68B96800F084
:104E580001FA78617B69002B02D04FF0FF3303E041
:104E68007B6901E04FF0FF3318461837BD4680BD17
:104E780080B485B000AF78600323FB7312E07B68D1
:104E88001968FA7B13465B0013449B000B4A1344D2
:104E9800994207D1FA7B13465B0013449B00074AEB
:104EA800134405E0FB7B5A1EFA73002BE7D100235D
:104EB80018461437BD465DF8047B7047100600207D
:104EC80080B588B000AF78600B46FB701023BB61DB
:104ED8007B687B610323FB777B68002B02D14FF053
:104EE800FF3357E0FB78002B08D07868FFF7C0FF46
:104EF8000346002B02D04FF0FF334BE0274B1B68D3
:104F08007A689A4245D010E0FA7F254913465B003B
:104F180013449B000B4404331B687A689A4204D1FB
:104F28001E4A7B681360002334E0FB7F5A1EFA7721
:104F3800002BE9D17B6918897B69D98807F10F03B0
:104F4800174A00F02FF8B861BB69002B1BD1FB7B17
:104F58001946134A0B465B000B449B001344043369
:104F68007A681A60FB7B1A4613465B0013449B0061
:104F78000B4A13443B617B683A691A60074A7B68AD
:104F88001360012306E07B6800221A604FF0FF33AC
:104F980000E0002318462037BD4680BD0C060020DF
:104FA8001006002080B588B000AFBA607B60034669
:104FB800FB810B46BB8107F1100300221A605A607F
:104FC8009A604FF6FF733B824FF6FF737B8207F1BF
:104FD8001002B989F889BB6800F07AFC0346FB83A4
:104FE800FB8B4FF6FF72934201D1012354E0FB8BF8
:104FF8002B4A5B01134408331B88FA899A4208D16B
:10500800FB8B274A5B01134410331B88BA899A42E9
:1050180021D0FB8B5B01224A13440021184600F083
:10502800B9FDFB8BDBB207F110021146184600F000
:105038005BFDFB8B5B011A4A13440121184600F003
:10504800A9FDFA8B13465B0013449B001A46BB6804
:10505800134400221A72FB8BDAB27B681A70FB8B3E
:10506800FA8B5B010E4919440E4813465B00134442
:105078009B0003441960FA8BF98B0B465B000B44C9
:105088009B001946BB68194413465B0013449B00F8
:10509800044A13440B60002318462037BD4680BDE0
:1050A8002C0100203406002080B584B000AF786061
:1050B8007B681B68184600F09DFC0346164A13607F
:1050C8007B681B68FB60144B1B689B889BB2FB7258
:1050D800114B1B68184600F0A1FEFB7AFA7A5B01B7
:1050E8000E4919440E4813465B0013449B000344C1
:1050F8001960FA7A0A4913465B0013449B000B4473
:10510800083301221A70FB6801221A72002318461C
:105118001037BD4680BD00BF5C0600202C01002072
:105128003406002090B583B000AF786039607B68A2
:105138001B681B68124A13607B681B68184600F0DE
:1051480059FC03460F4A13600D4B1B6800221A7264
:105158000C4B1C68386800F059FD0346A361094BE5
:105168001B68184600F05AFE054B1B6801221A728C
:10517800044B1B689B6918460C37BD4690BD00BFA1
:10518800580600205C06002080B582B000AF786029
:105198000B46FB707B681B68184600F02BFC034627
:1051A800074A1360064B1B681B68B3F1FF3F03D027
:1051B800034B1B68FA781A7700BF0837BD4680BDD5
:1051C8005C06002080B584B000AFF860B9607A60F2
:1051D800FB681B681B680B4A1360FB681B68184652
:1051E80000F008FC0346084A1360074B18680123BF
:1051F8007A68B96800F066F8034618461037BD4665
:1052080080BD00BF580600205C06002080B584B031
:1052180000AFF860B9607A60FB681B681B680B4ACE
:105228001360FB681B68184600F0E4FB0346084A55
:105238001360074B186801237A68B96800F0F4F91D
:10524800034618461037BD4680BD00BF58060020EB
:105258005C06002080B584B000AFF860B9607A6061
:105268003B60FB681B681B68144A1360FB681B687B
:10527800184600F0BFFB0346114A1360104B18682C
:1052880002237A68B96800F0CFF90346002B02D0F0
:1052980040F216530DE00A4B18680223BA693968C0
:1052A80000F010F80346002B02D040F2175300E03C
:1052B800002318461037BD4680BD00BF58060020A1
:1052C8005C06002080B58AB000AFF860B9607A60EB
:1052D800FB70FB681B68FB61FB68DB8BFB840023AE
:1052E8003B620023BB61FB78022B08D0F86800F012
:1052F80051FAB861BB69002B01D0BB698EE17B68AC
:10530800022B00F2B9807B68012B0BD0FB691B686C
:1053180043F48062FB691A60FB691B6843F400620E
:10532800FB691A60FB681B7F5B0043F001031A46A8
:10533800FB691A610BE0FB68DB8B002B07D0FB8C49
:105348005A1EFA84002B02D140F2175366E1FB691A
:105358005B6903F00203002BEDD0FB691B6823F4A3
:105368008062FB691A60FB695B697B6100BFFB694E
:105378009B691A047B6913437B61FB68DB8BFB84A5
:105388000BE0FB68DB8B002B07D0FB8C5A1EFA84E2
:10539800002B02D140F2175340E17B68012B0CD15E
:1053A800FB681B688C49184600F07DFA0346002B01
:1053B8000CBF01230023DBB208E0FB695B6903F043
:1053C8000403002B0CBF01230023DBB2002BD8D130
:1053D800FB78012B02D0FB78022B06D1FB691B68F6
:1053E80043F40072FB691A601EE0FB691B6843F412
:1053F8008072FB691A60FB68DB8BFB840BE0FB683F
:10540800DB8B002B07D0FB8C5A1EFA84002B02D1B1
:1054180040F2175302E1FB681B687049184600F018
:1054280042FA0346002BEAD07B68012B07D1FB69BF
:105438001969BA683B6A1344CAB21A7011E0FB6969
:1054480019693B6A5A1C3A62BA681344CAB21A709C
:10545800FB6919693B6A5A1C3A62BA681344CAB2B2
:105468001A707B68012B00F0D880FB691B6823F455
:105478000062FB691A60D0E0FB691B6843F4806234
:10548800FB691A60FB681B7F5B0043F001031A4647
:10549800FB691A61FB68DB8BFB840BE0FB68DB8B29
:1054A800002B07D0FB8C5A1EFA84002B02D140F245
:1054B8001753B3E0FB681B684949184600F0F3F935
:1054C8000346002BEAD000233B6221E0FB68DB8B1C
:1054D800FB840BE0FB68DB8B002B07D0FB8C5A1E90
:1054E800FA84002B02D140F2175397E0FB681B683F
:1054F8003949184600F0D7F90346002BEAD0FB6972
:1055080019693B6A5A1C3A62BA681344CAB21A70DB
:105518007B68033B3A6A9A42D8D3FB68DB8BFB84EF
:105528000BE0FB68DB8B002B07D0FB8C5A1EFA8440
:10553800002B02D140F2175370E0FB695B6903F05E
:105548000403002BEDD0FB691B6823F48062FB6920
:105558001A60FB6919693B6A5A1C3A62BA681344B3
:10556800CAB21A70FB68DB8BFB840BE0FB68DB8B31
:10557800002B07D0FB8C5A1EFA84002B02D140F274
:1055880017534BE0FB695B6903F00403002BEDD074
:10559800FB78012B02D0FB78022B06D1FB691B6834
:1055A80043F40072FB691A6025E0FB691B6843F449
:1055B8008072FB691A60FB68DB8BFB8412E0FB6876
:1055C800DB8B002B0ED0FB8C5A1EFA84002B09D1E2
:1055D80040F2175322E000BF40000300010003001F
:1055E80002000300FB681B680E49184600F05BF9CF
:1055F8000346002BE3D0FB6919693B6A5A1C3A62DF
:10560800BA681344CAB21A70FB6919693B6A5A1C12
:105618003A62BA681344CAB21A7000231846283787
:10562800BD4680BD0100030080B588B000AFF860BA
:10563800B9607A60FB70FB681B687B61FB68DB8B79
:10564800FB830023BB6100233B61F86800F0A2F8EC
:1056580038613B69002B01D03B698FE0FB681B7FF9
:105668005A007B691A610BE0FB68DB8B002B07D0C3
:10567800FB8B5A1EFA83002B02D140F216537DE0B1
:10568800FB681B683F49184600F00DF90346002BDC
:10569800EAD00023BB6122E0BA68BB6913441B78D7
:1056A8001A467B691A61FB68DB8BFB830BE0FB689E
:1056B800DB8B002B07D0FB8B5A1EFA83002B02D101
:1056C80040F216535AE0FB681B682F49184600F051
:1056D800EAF80346002BEAD0BB690133BB617B685B
:1056E800013BBA699A42D7D3BA68BB6913441B789D
:1056F8001A467B691A61FB68DB8BFB830BE0FB684E
:10570800DB8B002B07D0FB8B5A1EFA83002B02D1B0
:1057180040F2165332E0FB681B681C49184600F03B
:10572800C2F80346002BEAD0FB78012B06D17B692F
:105738001B6843F400727B691A601EE07B691B6872
:1057480043F480727B691A60FB68DB8BFB830BE098
:10575800FB68DB8B002B07D0FB8B5A1EFA83002BD0
:1057680002D140F2165309E0FB681B680849184645
:1057780000F099F80346002BEAD00023184620379A
:10578800BD4680BD82000700800007008400070036
:105798000100030080B586B000AF78607B681B68A5
:1057A8003B617B68DB8BFB820023FB60786800F041
:1057B80033F8F860FB68002B02D040F2145324E061
:1057C8003B691B6843F480723B691A603B695B69FB
:1057D80003F40073002B0ED04FF4A36315E07B682D
:1057E800DB8B002B07D0FB8A5A1EFA82002B02D1D2
:1057F80040F2145309E07B681B680649184600F01C
:1058080052F80346002BEAD0002318461837BD4645
:1058180080BD00BF0100030080B584B000AF786090
:105828007B68DB8BFB810BE07B68DB8B002B07D075
:10583800FB895A1EFA81002B02D140F21A530BE061
:105848007B681B68184600F00BF8034683F00103D9
:10585800DBB2002BE8D1002318461037BD4680BDC7
:1058680080B483B000AF78607B689B6903F0020363
:10587800002B0CBF01230023DBB218460C37BD46B2
:105888005DF8047B704780B483B000AF78607B68B4
:105898005A697B689B691B04134318460C37BD463D
:1058A8005DF8047B704780B582B000AF78603960DE
:1058B8007868FFF7E8FF02463B6813403A689A4267
:1058C8000CBF01230023DBB218460837BD4680BD54
:1058D80080B487B000AFBA607B600346FB810B469B
:1058E800BB810023FB750023BB75FB894FF6FF7254
:1058F800934204D0BB894FF6FF72934202D14FF610
:10590800FF7368E00023BB8258E0BB8A354A1B015D
:1059180013441B88FA899A424DD100237B8245E0C3
:105928007B8A314A1B0113441B88BA899A423AD1AF
:10593800BB8A2C4A1B01134408331A887B8A2A49DC
:105948001B010B4408331B889A422CD1BB8A254A79
:105958001B01134408331B88FB75FB7D9B00BA6849
:105968001344BA8A1A80FB7D9B00BA6813447A8A6A
:105978005A80FA7D13465B0013449B001A467B68E5
:1059880013445B68002B02D1FB7D9BB223E0BB7DF7
:105998000133BB75BB7D032B05D1BB7D013BBB75BB
:1059A800BB7D9BB217E07B8A01337B820F4B1B8840
:1059B8007A8A9A42B4D3BB8A0133BB820C4B1B88C8
:1059C800BA8A9A42A1D3BB7D002B02D0FB7D9BB241
:1059D80001E04FF6FF7318461C37BD465DF8047B9F
:1059E800704700BFD87C0008387D0008987D000803
:1059F8009A7D000880B485B000AF78600323FB73FC
:105A08000FE07B681B681B681A68FB7B0D495B010C
:105A18000B441B689A4204D1FB7B5B01094A13447F
:105A280009E0FB7B5A1EFA73002BEAD1064B1B7860
:105A38005B01044A134418461437BD465DF8047BDD
:105A4800704700BF2C010020AC01002080B483B057
:105A580000AF78600B46FB707B689B88022B28D0D0
:105A6800022B37DC002B02D0012B11D032E0FB785F
:105A7800002B06D01B4B1B681A4A43F40013136013
:105A880029E0184B1B68174A23F40013136022E01F
:105A9800FB78002B06D0134B1B68124A43F4800393
:105AA800136018E00F4B1B680E4A23F48003136041
:105AB80011E0FB78002B06D00A4B1B68094A43F417
:105AC8000003136007E0074B1B68064A23F4000332
